:020000040800F2
:10000000980400209D010008131600083B15000805
:1000100011160008B1020008911E0008000000003F
:10002000000000000000000000000000C9180008E7
:10003000B30200080000000015160008CB180008E5
:10004000B7010008B7010008B7010008B7010008B0
:10005000B7010008B7010008B7010008B7010008A0
:10006000B7010008B7010008B7010008B701000890
:10007000B7010008B7010008B7010008B701000880
:10008000B7010008B7010008B7010008B701000870
:10009000B7010008B7010008B7010008B701000860
:1000A000B7010008B7010008B7010008B701000850
:1000B000B7010008B7010008B7010008B701000840
:1000C000B7010008B7010008B7010008B701000830
:1000D000B7010008B7010008851E0008B701000835
:1000E000B7010008B7010008B7010008B701000810
:1000F000B7010008B7010008B7010008B701000800
:10010000B7010008B7010008B7010008B7010008EF
:10011000B7010008B7010008B7010008B7010008DF
:10012000B7010008B7010008B7010008B7010008CF
:10013000B7010008B7010008B7010008B7010008BF
:10014000B7010008B7010008B7010008B7010008AF
:10015000B7010008B7010008B7010008B70100089F
:10016000B7010008B7010008B7010008B70100088F
:10017000B7010008B7010008B7010008000000003F
:10018000B7010008B7010008DFF80CD000F07EF8D6
:10019000004800471D1F00089804002006488047BB
:1001A00006480047FEE7FEE7FEE7FEE7FEE7FEE75C
:1001B000FEE7FEE7FEE7FEE73919000889010008BF
:1001C0002DE9F05F0546002092469B46884606468C
:1001D000814640241BE0284641464746224600F01F
:1001E00044F853465A46C01A914110D31146184656
:1001F000224600F02BF82D1A67EB01084F462246E5
:100200000120002100F022F817EB00094E41201ECA
:10021000A4F10104DFDC484631462A46434600F09B
:1002200000B830BCBDE8C09FD2B201E000F8012B9D
:10023000491EFBD270470022F6E710B513460A4666
:1002400004461946FFF7F0FF204610BD202A04DBC4
:10025000203A00FA02F1002070479140C2F12003D9
:1002600020FA03F3194390407047202A04DB203A18
:1002700021FA02F00021704721FA02F3D040C2F1C6
:10028000200291400843194670470000064C074D74
:1002900006E0E06840F0010394E807009847103456
:1002A000AC42F6D3FFF774FFBC1F0008DC1F000848
:1002B000FEE77047704710B590F82510002402291A
:1002C00003D00421C16301241AE001680A6822F006
:1002D0000E020A6001680A6822F001020A6090F8C2
:1002E0004410036C01F01C02012101FA02F25A6071
:1002F00080F82510002180F82410816B01B1884717
:10030000204610BD70B5044600F000F90546601C9B
:1003100002D004484068044400F0F8F8401BA042B2
:10032000FAD370BD040000202DE9F84FDFF898B132
:1003300000234FF0010C4FF0030A4FF00F090BF1AF
:10034000040EB9E00CFA03F4224070D04D68022D7F
:1003500001D0122D0ED1DD0800EB8508D8F8205011
:100360005E07F70E09FA07F6B5430E69BE402E4345
:10037000C8F8206007685E0091F804800AFA06F564
:1003800008F00308AF4308FA06F848EA0708C0F87F
:1003900000804F68012F05D0022F03D0112F01D00C
:1003A000122F13D1D0F80880CF6828EA0508B7408B
:1003B00047EA08078760D0F804800F7928EA040824
:1003C000C7F300179F4047EA08074760D1F8048049
:1003D0006FEA0807BF0706D1C76AA743C8F3C0047E
:1003E0009C403C43C462C468AC438D68B54025431F
:1003F000C5604C68E4005ED5344C256E45F00105BF
:100400002566246E23F0030504F001040094304CAB
:100410002E19B4689D072F0F09FA07F5AC43B0F108
:10042000904F05D02B4DA84204D101251CE042E09D
:10043000002519E0284DA84201D1022514E0274DDE
:10044000A84201D103250FE0254DA84201D1042582
:100450000AE0244DA84201D1052505E0224DA8421D
:1004600001D1062500E00725BD402543B560DBF836
:1004700000405D464E689443F60300D514432C605B
:10048000DEF8004075464E689443B60300D5144329
:100490002C600D4D08352C684E689443F60200D54B
:1004A00014432C60084D0C352C684E689443B602FA
:1004B00000D514432C605B1C0A6832FA03F57FF404
:1004C00041AF00F013B800000004014000100240EA
:1004D000000001400004004800080048000C0048EB
:1004E00000100048001400480018004818BCBDE87F
:1004F000E08F42690A4201D0816270478161704792
:100500000AB18161704781627047000001488068CC
:1005100070470000040000200248816842681144CE
:100520008160704704000020094810B5016800246C
:1005300041F480710160032000F072F8002000F0A7
:1005400009F808B1012401E000F026F8204610BDAA
:100550000020024070B50E4E05460024706898B128
:100560004FF47A71B1FBF0F00A490968B1FBF0F081
:1005700000F0F2FD40B9102D06D200222946501E8F
:1005800000F02EF8356000E00124204670BD000028
:100590000400002010000020094808B5016E41F059
:1005A00001010166016E01F001010091816D41F0D0
:1005B00080518165806D00F08050009008BD000082
:1005C00000100240002809DB00F01F0201219140C9
:1005D0004009800000F1E020C0F8001170470000E1
:1005E000F0B40E4B1B680C46C3F30223C3F107059E
:1005F000042D00D90425191D072901D2002300E08C
:10060000DB1E012606FA05F1491E214099409E4055
:10061000761E16403143F0BC01F044BC0CED00E006
:10062000064900F0070208684FF6FF03184040EA49
:100630000220034A10430860704700000CED00E000
:100640000000FA051649B0F5007F0868C0F34120A4
:1006500009D0022805D0086820F4C06040F480600A
:100660000860002070470128FBD0086820F4C060B3
:1006700040F4007008600B483222006850430A4A78
:10068000B0FBF2F0401C00E0401E4A69520501D563
:100690000028F9D148694005E3D5032070470000E0
:1006A000007000401000002040420F000248006827
:1006B00000F4C06070470000007000402DE9F84F62
:1006C000044600270088E54D3E46010504F1200B55
:1006D0001DD5606E78B1B0F5800F11D0B0F5000F68
:1006E00004D0B0F5400F22D001270FE0E86840F4B5
:1006F0008030E8601BE00021201D00F08DFF03E04A
:100700000021584601F01EF8070010D03E46208810
:10071000C00426D5A06EC0B1B0F1807F1AD0B0F170
:10072000007F0DD0B0F1407F19D0012718E0D5F837
:100730008800616E20F440000843C5F88800E6E7B1
:10074000E86840F48030E86009E00021201D00F0F6
:1007500063FF03E00021584600F0F4FF0746F7B1BD
:100760003E46206880033AD5A86D4FF00008C000CF
:1007700009D4A86D40F08050A865A86D4FF001081D
:1007800000F080500090DFF8D8A2DAF8001041F4B1
:100790008071CAF80010FFF7B9FE814610E0D5F865
:1007A0008800A16E20F040700843C5F88800D8E7A3
:1007B000FFF7ACFEA0EB0900022801D9032705E0F2
:1007C000DAF80000C005F3D5002F7CD04FEA070609
:1007D000B8F1000F03D0A86D20F08050A8652078F4
:1007E000C00707D0D5F88800A16B20F003000843AC
:1007F000C5F888002078800707D5D5F88800E16B18
:1008000020F00C000843C5F888002078400707D581
:10081000D5F88800216C20F030000843C5F8880026
:100820002078000707D5D5F88800616C20F0C0005B
:100830000843C5F888002078C00607D5D5F8880099
:10084000A16C20F440700843C5F888002078800629
:1008500007D5D5F88800E16C20F440600843C5F85E
:1008600088002088800507D5D5F88800E16D20F440
:1008700040200843C5F888002088400507D5D5F8F2
:100880008800216E20F440100843C5F888002078C5
:10089000400607D5D5F88800216D20F44050084364
:1008A000C5F888002078000607D5D5F88800616D66
:1008B00020F440400843C5F888002088C00509D5C9
:1008C000D5F8880000E01CE0A16D20F4403008431A
:1008D000C5F8880020884FF0006780044FF08068DA
:1008E0004FD5D5F88800E16E20F040600843C5F888
:1008F0008800E06EB8423CD1E86840F48010E860BF
:100900003FE0D5F8900010F4407015D0D4F8841072
:10091000814211D0D5F89000D5F8901020F44070A5
:1009200041F48031C5F89010D5F8901021F4803151
:10093000C5F89010C5F89000C00710D0FFF7E6FD8D
:10094000074641F2883906E0FFF7E0FDC11B494543
:1009500001D903263CE7D5F890008007F4D5D5F8F7
:100960009000D4F8841020F440700843C5F890003B
:100970002EE7404505D10121201D00F04DFE00B1BC
:1009800006462068000317D5D5F88800216F20F0AF
:1009900040600843C5F88800206FB84204D1E86879
:1009A00040F48010E86007E0404505D10121201D9A
:1009B00000F032FE00B106462068400317D5D5F896
:1009C0008800616F20F040600843C5F88800606FC0
:1009D000B84204D1E86840F48010E86007E0404580
:1009E00005D10121201D00F017FE00B10646208828
:1009F00040041AD5D5F88800A16F20F04050084374
:100A0000C5F88800A06FB0F1805F03D0B0F1005F3F
:100A100005D00AE00221201D00F0FEFD03E00221C6
:100A2000584600F08FFE00B106462088000407D526
:100A3000D5F88800E16F20F080400843C5F88800B1
:100A40002068C00307D555F8880FD4F8801020F02F
:100A5000004008432860304600F004B8001002400F
:100A60000070004018BCBDE8E08F00002DE9F047A1
:100A70000F46050058D0404E306800F00700B842DD
:100A800009D2306820F0070038433060306800F049
:100A90000700B84248D12878384CC0072CD0686885
:100AA000032811D0022812D0216898B149050029E5
:100AB0003ADAA16821F003010143A160FFF726FDA6
:100AC000804641F2883910E021688901EFE721680A
:100AD0008903ECE78907EAE7FFF718FDA0EB0801B7
:100AE000494502D90320BDE8F087A068696800F095
:100AF0000C00B0EB810FEFD12878800705D5A068F6
:100B0000A96820F0F0000843A060306800F00700FA
:100B1000B8420BD9306820F00700384330603068A5
:100B200000F00700B84201D00120DCE72878400738
:100B300005D5A068E96820F4E0600843A060287843
:100B4000000706D5A068296920F4605040EAC1007A
:100B5000A06000F03FF8A168094AC1F30311515C9D
:100B600001F01F01C8400749086007480068BDE858
:100B7000F047FFF7EFBC00000020024000100240E9
:100B8000741F0008100000200400002005480649DA
:100B900000688968054AC1F30221515C01F01F0118
:100BA000C84070471000002000100240B41F000829
:100BB0000548064900688968054AC1F3C221515CAD
:100BC00001F01F01C84070471000002000100240D3
:100BD000B41F000870B52549002318468A68CC6800
:100BE00012F00C0204F00306214C4FEA640509D010
:100BF0000C2A05D0042A32D0082A00D1284670BD1C
:100C0000012E10D10B681B0704D4D1F89430C3F324
:100C1000032302E00B68C3F30313164E56F8233088
:100C2000DAB10C2AEBD1C86800F00300022818D012
:100C3000032818D01846CA68CB68C2F30212C3F35F
:100C400006234343521CB3FBF2F2C868C0F3416071
:100C5000401C4000B2FBF0F070BD184670BD20464D
:100C600070BD2046E7E72846E5E700000010024097
:100C70000024F400841F00082DE9F84304006ED01E
:100C8000FD4DA86800F00C06E86800F00307207826
:100C9000C00663D576B10C2E01D1012F0AD0A06910
:100CA0000028286878D040F001002860FFF72EFC6B
:100CB00080465BE02868800702D5A0690028DED066
:100CC000216A2868000703D5286800F0F00004E0D6
:100CD000D5F89400F02202EA1010814216D9084695
:100CE00000F0B4FD00283AD1286840F008002860E0
:100CF0002868216A20F0F000084328606868E169EC
:100D000020F47F4040EA0120686015E0286840F048
:100D1000080028602868216A20F0F0000843286055
:100D20006868E16920F47F4040EA01206860206A39
:100D300000F08CFD0028D6D1FFF74CFFA968CF4A00
:100D4000C1F30311515C01F01F01C840CC49086098
:100D5000CC480068FFF7FEFB00287DD12DE0C9E0FC
:100D6000FFF7D4FBA0EB0800022876D8286880079C
:100D7000F6D5286840F0080028602868216A20F02D
:100D8000F000084328606868E16920F47F4040EA89
:100D90000120686011E0FFE720F001002860FFF704
:100DA000B5FB804606E000BFFFF7B0FBA0EB0800F4
:100DB0000228DAD828688007F6D42078C00740D007
:100DC000082E18D00C2E01D1032F14D06068B0F576
:100DD000803F17D0B0F5A02F286817D020F48030BE
:100DE0002860286820F4802028606068E0B1FFF760
:100DF0008DFB804614E02868800322D560680028B7
:100E000078D01EE0286840F48030EDE740F4802080
:100E10002860F7E7FFF77AFBA0EB08006428A4D866
:100E200028688003F6D50CE0FFF770FB804605E0EC
:100E3000FFF76CFBA0EB0800642896D828688003B5
:100E4000F6D4207880073BD5042E11D00C2E01D18A
:100E5000022F0DD0E06801E03EE19FE00028286805
:100E60001ED040F480702860FFF750FB07460CE06E
:100E7000286840050CD5E0680028C1D008E000BF14
:100E8000FFF744FBC01B022893D828684005F7D51C
:100E90006868217C20F0F85040EA016068600FE04B
:100EA00020F480702860FFF731FB074605E000BFA3
:100EB000FFF72CFBC01B022870D828684005F7D428
:100EC0002078000729D560690028D5F8940012D051
:100ED00040F00100C5F89400FFF718FB074604E056
:100EE000FFF714FBC01B022858D8D5F894008007E0
:100EF000F6D512E029E120F00100C5F89400FFF7D3
:100F000005FB074605E000BFFFF700FBC01B0228FA
:100F100044D8D5F894008007F6D42078400768D5E7
:100F2000A86D0027C00008D4A86D40F08050A865C7
:100F3000A86D012700F08050009053480168C90552
:100F400012D40168814641F480710160FFF7DEFA36
:100F5000804605E0FFF7DAFAA0EB080002281DD86A
:100F6000D9F80000C005F5D5A068012817D00528DC
:100F7000D5F8900018D020F00100C5F89000D5F801
:100F8000900020F0040000BFC5F89000A06841F276
:100F90008839D0B1FFF7BAFA804611E06BE0D5F896
:100FA000900040F00100EFE740F00400C5F8900029
:100FB000F5E700BFFFF7AAFAA0EB080149455AD8A8
:100FC000D5F890008007F5D50EE0FFF79FFA804630
:100FD00006E000BFFFF79AFAA0EB080149457AD86E
:100FE000D5F890008007F5D41FB1A86D20F080508F
:100FF000A865A06AF0B30C2E75D00228286820F0EE
:101000008070286004D0286810F0205F51D054E030
:10101000FFF77CFA064604E0FFF778FA801B022807
:1010200059D828688001F7D4D4E90B016FF00F027A
:1010300002EB01110843A18F5204490802EB415110
:10104000626B41EA0221084394F840104FF07E425F
:10105000490802EB41610843A16B090940EA41409C
:10106000E9680A4A11400843E860286840F0807047
:1010700028600DE06BE02EE000100240741F0008B5
:101080001000002004000020007000408C809DF9BA
:10109000E86840F08070E860FFF738FA044604E042
:1010A000FFF734FA001B022815D828688001F7D50D
:1010B0004DE0E86820F00300E860E8682549084052
:1010C000E860FFF723FA044609E000BFFFF71EFAC5
:1010D000001B022803D90320BDE8F88303E0286839
:1010E0008001F3D433E00128F6D0E868E26A00F02A
:1010F0000301914229D1216B00F0700209011039DE
:10110000914222D1626B00F4FE41B1EB022F1CD15F
:10111000A26B00F40031072A01D0012200E0002276
:10112000914212D1A18F00F4C00249084905A1F5EE
:101130000011914209D194F8401000F0C0604908B4
:101140004906A1F10071814201D00120C4E70020CD
:10115000C2E70000FFFFEEFE10B5401EB0F1807F39
:1011600001D3012010BD4FF0E02460610F21601712
:1011700000F098FE0020A06107202061002010BD33
:10118000704770472DE9F04102680446D069116844
:10119000936810F00F0F4FF000055BD003F00106CD
:1011A00001F49077374369D0C70707D0CF0505D53D
:1011B00001271762E26F42F00102E267820708D559
:1011C000DA0706D0276802223A62E26F42F0040290
:1011D000E267420708D5DA0706D0236804221A62BC
:1011E000E26F42F00202E26702070AD501F0200234
:1011F000324306D0236808221A62E26F42F00802E6
:10120000E267E26F002A32D0800605D5880603D552
:10121000216E09B120468847E06F21688968490638
:1012200001D4000725D5204600F042FC20688168E3
:10123000490619D5816821F040018160E06E98B1BE
:1012400020498163E06EFFF736F800280FD0E06E8A
:10125000816B06E0860611D58E060FD5216E1EE045
:101260002046BDE8F04108472046FFF78AFFBDE869
:10127000F0812046FFF785FFE567F8E7C60209D54C
:101280005B0207D54FF4801010622046BDE8F041A4
:10129000FFF776BF030605D50B0603D5616E00295F
:1012A000DED1E4E74006E2D54806E0D511682046E5
:1012B00021F04001116020216167656600F03CF972
:1012C000D5E700009D1A000810B5040002D0606F39
:1012D00010B107E0012010BD002084F87000204606
:1012E00000F026F8242060672068016821F00101E1
:1012F0000160204600F046FC0128ECD0606A10B185
:10130000204600F03BFB2068416821F49041416099
:101310002068816821F02A0181602068016841F01D
:10132000010101602046BDE8104000F08BBB0000C9
:1013300010B586B0044614216846FEF77CFF1749B5
:101340002068884227D11648816D41F400318165BB
:10135000816D01F400310591C16C41F00101C1645E
:10136000C06C694600F0010005900C20009002203E
:1013700001900020029003200390072004904FF07A
:101380009040FEF7D1FF002211462620FFF728F9F2
:101390002620FFF717F906B010BD000000440040FA
:1013A0000010024030B5836F202B4BD1B1B1AAB1F0
:1013B00090F87030012B45D0012380F870304165E2
:1013C000A0F85820A0F85A20002101661D03826869
:1013D000FF23AA4207D1026912B125E0012030BDE6
:1013E00040F2FF1226E07F24E2B1B2F1805F1ED00E
:1013F000A0F85C10C167222282670268936843F0FC
:10140000010393608268AA4201D10269C2B10E4A07
:10141000026680F870100068016841F49071016004
:10142000002030BD026942B9A0F85C30E2E70269F1
:101430001AB13F22A0F85C20DCE7A0F85C40D9E7B5
:10144000024AE5E7022030BD291B0008CF1A000838
:1014500010B50068084988420CD1FF2304220749CF
:10146000074800F00FF8BDE8104004220349044883
:10147000FFF798BF10BD00000044004000000020AE
:10148000180000202DE9F8430446406F1F46164619
:101490000D4620284ED1CDB1C6B194F87000012878
:1014A00048D0012084F870004FF00008C4F87C8018
:1014B00021206067FFF72AF8A4F850608146A4F85D
:1014C0005260A068B0F5805F03D004E00120BDE861
:1014D000F883206910B12E46002510E000260EE0AA
:1014E0008021204600F09EFCB8B9C6B116F8010B69
:1014F00021680885B4F85200401EA4F85200B4F8E0
:1015000052004B464FF0000200970028E8D14FF000
:101510004001204600F086FC30B10320D7E735F8C3
:10152000020BC0F30800E3E72020606784F87080B6
:101530000020CCE70220CAE77047FEE730B587B04D
:1015400014216846FEF777FE1F48C16C41F0040184
:10155000C164C16C01F004010591C16C41F08001CE
:10156000C164C16C01F080010591C16C41F00101C1
:10157000C164C16C01F001010591C16C41F002012F
:10158000C164C06C4FF0904500F00200059000224D
:1015900020212846FEF7B4FF4FF4005000900B487E
:1015A0000024CDE9010469460948FEF7BDFE20206C
:1015B00000900120CDE90104694628460394FEF716
:1015C000B3FE07B030BD0000001002400000211043
:1015D000000800480D4810B50B4901604FF4E13197
:1015E0004160002181600C22C160C0E90412816168
:1015F000C16101624162FFF767FE002803D0BDE8C8
:101600001040FEF757BE10BD0044004018000020F7
:10161000FEE77047704700002DE9F041444C054655
:101620008846E0680026810728680DD0E16801F04F
:101630000301814216D1A8B1E0686968C0F30210C5
:10164000401C88420ED120E0012804D0022805D099
:10165000032807D108E02168890701E021684905CE
:10166000002907DB01265FE02168890302D4216895
:101670004903F5E7E1686A686FF00F0321F0730131
:1016800003EB021211430143E160206820F0806007
:101690002060FEF73BFF074605E000BFFEF736FF80
:1016A000C01B022837D820680001F7D4B8F1000F1A
:1016B00018D0B8F1010F1ED0287D4FF07E414008B0
:1016C00001EB4060A96840EA01202169194A1140F4
:1016D00008432061206840F080602060FEF716FF1C
:1016E00007461AE0A868E9680002090940EA414093
:1016F0002169114AEBE7288A1049400801EB405064
:10170000A96840EA012021690D4AE0E7FEF7FEFEE4
:10171000C01B022801D9032606E020680001F5D588
:101720002069A969084320613046BDE8F0810000C6
:1017300000100240FF80FFF9FF80FDFF0000E0FF86
:10174000FF809FFF2DE9F0413D4C06468846E0684A
:101750000025810730680DD0E16801F00301814266
:1017600016D1A8B1E0687168C0F30210401C88422D
:101770000ED120E0012804D0022805D0032807D18B
:1017800008E02168890701E021684905002907DB95
:10179000012551E02168890302D421684903F5E756
:1017A000E16872686FF00F0321F0730103EB02121E
:1017B00011430143E160206820F080502060FEF773
:1017C000A5FE074605E000BFFEF7A0FEC01B0228ED
:1017D00029D820688000F7D4B8F1000F15D0307CEC
:1017E0004FF07E41400801EB4060B16840EA0120C3
:1017F0006169144A114008436061206840F08050DC
:101800002060FEF783FE07460FE0B068F168000233
:10181000090940EA414061690B4AEBE7FEF776FEB1
:10182000C01B022801D9032506E020688000F5D5F9
:1018300060697169084360612846BDE8F081000075
:1018400000100240FF80FFF9FF80FDFFF8B51C4D3E
:1018500006460024A86DC00002D5FEF727FF0DE064
:10186000A86D40F08050A865A86D00F080500090F1
:10187000FEF71CFFA96D21F08051A965B0F5007F2E
:1018800004D0802E07D94FF003040AE0802E08D937
:10189000A02E01D804E001D1022402E0702E00D174
:1018A00001240848016821F0070121430160006814
:1018B00000F00700A04201D00120F8BD0020F8BDD3
:1018C00000100240002002407047FEF725BE30B5F0
:1018D000B9B0442122A8FEF7AEFC142133A8FEF7CC
:1018E000AAFC88216846FEF7A6FC01200224010418
:1018F0002C940325CDE92201CDE92D5014202F9001
:101900000720CDE9300422A83294FFF7B5F90F2063
:10191000CDE93305002535953695042133A8379553
:10192000FFF7A4F80F9568460094FEF7C7FE200263
:10193000FEF788FE39B030BD0D48016841F47001F2
:1019400001600C48016841F00101016000218160E3
:101950000268094B1A4002608214C260026822F4D5
:101960008022026081610249C003803908607047AB
:1019700088ED00E000100240FFFFF6EA90F8241026
:10198000C90706D001684A68836A22F400321A4304
:101990004A6090F82410890706D501684A68C36A2E
:1019A00022F480321A434A6090F82410490706D581
:1019B00001684A68036B22F480221A434A6090F857
:1019C0002410090706D501684A68436B22F40042D7
:1019D0001A434A6090F82410C90606D501688A683F
:1019E000836B22F480521A438A6090F8241089068F
:1019F00006D501688A68C36B22F400521A438A60D4
:101A000090F82410490611D501684A68036C22F445
:101A100080121A434A60016CB1F5801F06D101683B
:101A20004A68436C22F4C0021A434A6090F82410BA
:101A3000090606D501684A68806C22F40022024338
:101A40004A607047F8B500260446C667FEF75EFD9B
:101A50000546206800686FF07E47000708D52B46D2
:101A600000224FF400112046009700F0DBF960B926
:101A70002068006840070AD52B4600224FF48001F9
:101A80002046009700F0CEF908B10320F8BD2020D1
:101A90006067A06784F870600020F8BD10B5806AA8
:101AA0000021A0F85A10A0F85210FFF76AFB10BDF1
:101AB00001680A6822F490720A6001688A6822F05C
:101AC00001028A602021816700210166704710B5FC
:101AD000B0F85C20836F0168222B04D0088B40F0A3
:101AE0000800088310BD898C436D11401980416D39
:101AF000891C4165B0F85A10491EA0F85A10B0F878
:101B00005A100029EED101680A6822F490720A6026
:101B100001688A6822F001028A6020218167002121
:101B20000166FFF795FC10BD10B5B0F85C20836F1F
:101B30000168222B04D0088B40F00800088310BDF8
:101B4000898C1140426D1170416D491C4165B0F89E
:101B50005A10491EA0F85A10B0F85A100029EED1B8
:101B600001680A6822F490720A6001688A6822F0AB
:101B700001028A602021816700210166FFF768FC6D
:101B800010BD00002DE9F0410546016880682B6911
:101B9000EC6918436B69002723431843954A0B6887
:101BA000954C234003430B6028684168EB6821F49F
:101BB0004051194341602968A869914201D02B6ABC
:101BC00018438B6823F4306303438B608B4B296885
:101BD0008B4899420DD1D0F8880010F0030006D050
:101BE000012868D0022864D0032851D165E001247F
:101BF0004FE0844B99420BD1D0F8880010F00C00D4
:101C000055D0042857D0082853D00C2840D154E090
:101C10007D4B99420BD1D0F8880010F0300046D0AF
:101C2000102848D0202844D0302831D145E0774BC7
:101C300099420BD1D0F8880010F0C00037D040286E
:101C400039D0802835D0C02822D136E0704B994257
:101C50000ED1D0F8880010F4407028D0B0F5807F05
:101C600029D0B0F5007F24D0B0F5407F10D124E01A
:101C700091420DD1D0F8880010F4406017D0B0F533
:101C8000806F18D0B0F5006F13D0B0F5406F14D04E
:101C90001024604B00264FF40040914245D174B1AE
:101CA000022C0FD0042C0FD0082C18D10FE00024E8
:101CB000EFE70224EDE70424EBE70824E9E7FEF769
:101CC00065FF03E0184602E0FEF784FFA8B36A68E8
:101CD00002EB4201814202D8B0EB023F01D9012759
:101CE00075E0DFF834815CB1022C0CD0042C13D0E9
:101CF000082CF4D150082105401846F1000105E0F8
:101D0000FEF744FF0AE050084449F5E70023FEF7D8
:101D100057FAA0F5407156E0FEF75CFF6A68010EC5
:101D20000302500818187141F0E7E9694FF6EF789F
:101D300081422FD1092CD2D200E048E0DFE804F044
:101D400006092005230505052600C8E7FEF71EFF46
:101D500001E0FEF72DFF4100D5F8040001EB500132
:101D6000B1FBF0F080B2A0F110014145B7D84FF6B9
:101D7000F0710140C0F3420001432868C16026E0D1
:101D800027496868EAE7FEF725FFE4E74FF480316A
:101D90006868E3E7092CA2D2DFE804F006091E0513
:101DA0002205050525009AE7FEF7F0FE01E0FEF7A3
:101DB000FFFE0146686801EB500100BFB1FBF0F087
:101DC00080B2A0F11001414589D82968C8602E660B
:101DD00038466E66BDE8F081686803EB5001EDE7B8
:101DE000FEF7F8FEE5E7696800EB5100B0FBF1F0A3
:101DF000E6E7000000800040F369FFEF0038014093
:101E0000001002400044004000480040004C0040E8
:101E1000005000400024F400FFFC0F00000024F4F8
:101E20000048E8012DE9F041984617460E46044661
:101E3000069D08E0681C06D0FEF768FBA0EB0800D2
:101E4000A8420BD855B12068C06936EA000017D007
:101E50000020B842EED00020BDE8F0812068016883
:101E600021F4D07101602068816821F00101816056
:101E700020206067A067002084F870000320EBE753
:101E80000120E6E70148FFF77DB9000018000020B7
:101E9000FEE70000014A024900F023B8051F0008D0
:101EA000140000200907090E002804DB00F1E020DF
:101EB00080F80014704700F00F0000F1E02080F877
:101EC000141D704702E008C8121F08C1002AFAD189
:101ED00070477047002001E001C1121F002AFBD1AA
:101EE00070472DE9F04116460F460446002503E0F1
:101EF0003946B047641C6D1C20780028F8D128466C
:101F0000BDE8F08113B54FF6FF7301226946024820
:101F1000FFF7B8FA00981CBD18000020FEF704FB7C
:101F2000FFF7D5FCFFF70AFBFFF754FB0422094932
:101F30000948FFF737FA4FF090444FF4FA65202133
:101F40002046FEF7D6FA05A0FFF7A4FF2846FEF7C5
:101F5000D9F9F4E700000020180000205541525440
:101F6000325F4952512064656C61792074657374E5
:101F70000D0A000000000000000000000102030440
:101F800006070809A0860100400D0300801A06001C
:101F900000350C0040420F0080841E0000093D0007
:101FA00000127A000024F40000366E010048E801B7
:101FB000006CDC020000000001020304DC1F0008CA
:101FC0000000002018000000C41E0008F41F0008D4
:101FD0001800002080040000D41E0008000000004B
:101FE00010000000010000000000000000093D009A
:041FF00000000000ED
:040000050800018965
:00000001FF
